{
  "contractName": "CertificateGenerator",
  "abi": [
    {
      "inputs": [
        {
          "internalType": "address",
          "name": "_instituteRegistryAddress",
          "type": "address"
        }
      ],
      "stateMutability": "nonpayable",
      "type": "constructor"
    },
    {
      "inputs": [],
      "name": "certificateCount",
      "outputs": [
        {
          "internalType": "uint256",
          "name": "",
          "type": "uint256"
        }
      ],
      "stateMutability": "view",
      "type": "function",
      "constant": true
    },
    {
      "inputs": [
        {
          "internalType": "uint256",
          "name": "",
          "type": "uint256"
        }
      ],
      "name": "certificates",
      "outputs": [
        {
          "internalType": "address",
          "name": "instituteAddress",
          "type": "address"
        },
        {
          "internalType": "string",
          "name": "instituteName",
          "type": "string"
        },
        {
          "internalType": "string",
          "name": "studentName",
          "type": "string"
        },
        {
          "internalType": "address",
          "name": "studentAddress",
          "type": "address"
        },
        {
          "internalType": "string",
          "name": "recordName",
          "type": "string"
        },
        {
          "internalType": "string",
          "name": "description",
          "type": "string"
        },
        {
          "internalType": "bool",
          "name": "isRevoked",
          "type": "bool"
        },
        {
          "internalType": "string",
          "name": "ipfs",
          "type": "string"
        }
      ],
      "stateMutability": "view",
      "type": "function",
      "constant": true
    },
    {
      "inputs": [],
      "name": "instituteRegistry",
      "outputs": [
        {
          "internalType": "contract InstituteRegistry",
          "name": "",
          "type": "address"
        }
      ],
      "stateMutability": "view",
      "type": "function",
      "constant": true
    },
    {
      "inputs": [],
      "name": "isReg",
      "outputs": [
        {
          "internalType": "bool",
          "name": "",
          "type": "bool"
        }
      ],
      "stateMutability": "view",
      "type": "function",
      "constant": true
    },
    {
      "inputs": [
        {
          "internalType": "address",
          "name": "_studentAddress",
          "type": "address"
        },
        {
          "internalType": "string",
          "name": "_studentName",
          "type": "string"
        },
        {
          "internalType": "string",
          "name": "_recordName",
          "type": "string"
        },
        {
          "internalType": "string",
          "name": "_description",
          "type": "string"
        },
        {
          "internalType": "string",
          "name": "_ipfs",
          "type": "string"
        }
      ],
      "name": "generateCertificate",
      "outputs": [],
      "stateMutability": "nonpayable",
      "type": "function"
    },
    {
      "inputs": [
        {
          "internalType": "string",
          "name": "studentName",
          "type": "string"
        },
        {
          "internalType": "string",
          "name": "recordName",
          "type": "string"
        }
      ],
      "name": "revokeCertificate",
      "outputs": [],
      "stateMutability": "nonpayable",
      "type": "function"
    },
    {
      "inputs": [
        {
          "internalType": "address",
          "name": "_studentAddress",
          "type": "address"
        }
      ],
      "name": "getCertificatesByStudent",
      "outputs": [
        {
          "components": [
            {
              "internalType": "address",
              "name": "instituteAddress",
              "type": "address"
            },
            {
              "internalType": "string",
              "name": "instituteName",
              "type": "string"
            },
            {
              "internalType": "string",
              "name": "studentName",
              "type": "string"
            },
            {
              "internalType": "address",
              "name": "studentAddress",
              "type": "address"
            },
            {
              "internalType": "string",
              "name": "recordName",
              "type": "string"
            },
            {
              "internalType": "string",
              "name": "description",
              "type": "string"
            },
            {
              "internalType": "bool",
              "name": "isRevoked",
              "type": "bool"
            },
            {
              "internalType": "string",
              "name": "ipfs",
              "type": "string"
            }
          ],
          "internalType": "struct CertificateGenerator.Certificate[]",
          "name": "",
          "type": "tuple[]"
        }
      ],
      "stateMutability": "view",
      "type": "function",
      "constant": true
    },
    {
      "inputs": [
        {
          "internalType": "string",
          "name": "instituteName",
          "type": "string"
        },
        {
          "internalType": "string",
          "name": "studentName",
          "type": "string"
        },
        {
          "internalType": "string",
          "name": "recordName",
          "type": "string"
        }
      ],
      "name": "getCertificate",
      "outputs": [
        {
          "components": [
            {
              "internalType": "address",
              "name": "instituteAddress",
              "type": "address"
            },
            {
              "internalType": "string",
              "name": "instituteName",
              "type": "string"
            },
            {
              "internalType": "string",
              "name": "studentName",
              "type": "string"
            },
            {
              "internalType": "address",
              "name": "studentAddress",
              "type": "address"
            },
            {
              "internalType": "string",
              "name": "recordName",
              "type": "string"
            },
            {
              "internalType": "string",
              "name": "description",
              "type": "string"
            },
            {
              "internalType": "bool",
              "name": "isRevoked",
              "type": "bool"
            },
            {
              "internalType": "string",
              "name": "ipfs",
              "type": "string"
            }
          ],
          "internalType": "struct CertificateGenerator.Certificate",
          "name": "",
          "type": "tuple"
        }
      ],
      "stateMutability": "view",
      "type": "function",
      "constant": true
    }
  ],
  "bytecode": "0x60806040523480156200001157600080fd5b5060405162002f7538038062002f758339818101604052810190620000379190620000e8565b806000806101000a81548173ffffffffffffffffffffffffffffffffffffffff021916908373ffffffffffffffffffffffffffffffffffffffff160217905550506200011a565b600080fd5b600073ffffffffffffffffffffffffffffffffffffffff82169050919050565b6000620000b08262000083565b9050919050565b620000c281620000a3565b8114620000ce57600080fd5b50565b600081519050620000e281620000b7565b92915050565b6000602082840312156200010157620001006200007e565b5b60006200011184828501620000d1565b91505092915050565b612e4b806200012a6000396000f3fe608060405234801561001057600080fd5b50600436106100885760003560e01c80637c7aeeec1161005b5780637c7aeeec1461011e578063866551391461014e578063bc4f5bad1461016a578063ea0925181461018657610088565b80630144c3c91461008d5780632aaa899b146100ab57806352d7b89c146100c9578063663b3e22146100e7575b600080fd5b6100956101b6565b6040516100a29190611b6e565b60405180910390f35b6100b36101c9565b6040516100c09190611c08565b60405180910390f35b6100d16101ed565b6040516100de9190611c3c565b60405180910390f35b61010160048036038101906100fc9190611c97565b6101f3565b604051610115989796959493929190611d75565b60405180910390f35b61013860048036038101906101339190611f4b565b610530565b6040516101459190612126565b60405180910390f35b61016860048036038101906101639190612174565b610c6f565b005b610184600480360381019061017f919061225f565b6111c4565b005b6101a0600480360381019061019b91906122d7565b6113db565b6040516101ad9190612492565b60405180910390f35b600060149054906101000a900460ff1681565b60008054906101000a900473ffffffffffffffffffffffffffffffffffffffff1681565b60025481565b60016020528060005260406000206000915090508060000160009054906101000a900473ffffffffffffffffffffffffffffffffffffffff169080600101805461023c906124e3565b80601f0160208091040260200160405190810160405280929190818152602001828054610268906124e3565b80156102b55780601f1061028a576101008083540402835291602001916102b5565b820191906000526020600020905b81548152906001019060200180831161029857829003601f168201915b5050505050908060020180546102ca906124e3565b80601f01602080910402602001604051908101604052809291908181526020018280546102f6906124e3565b80156103435780601f1061031857610100808354040283529160200191610343565b820191906000526020600020905b81548152906001019060200180831161032657829003601f168201915b5050505050908060030160009054906101000a900473ffffffffffffffffffffffffffffffffffffffff169080600401805461037e906124e3565b80601f01602080910402602001604051908101604052809291908181526020018280546103aa906124e3565b80156103f75780601f106103cc576101008083540402835291602001916103f7565b820191906000526020600020905b8154815290600101906020018083116103da57829003601f168201915b50505050509080600501805461040c906124e3565b80601f0160208091040260200160405190810160405280929190818152602001828054610438906124e3565b80156104855780601f1061045a57610100808354040283529160200191610485565b820191906000526020600020905b81548152906001019060200180831161046857829003601f168201915b5050505050908060060160009054906101000a900460ff16908060070180546104ad906124e3565b80601f01602080910402602001604051908101604052809291908181526020018280546104d9906124e3565b80156105265780601f106104fb57610100808354040283529160200191610526565b820191906000526020600020905b81548152906001019060200180831161050957829003601f168201915b5050505050905088565b610538611ae0565b60005b600254811015610c2c5761054e85611928565b60405160200161055e9190612550565b6040516020818303038152906040528051906020012061061b600160008481526020019081526020016000206001018054610598906124e3565b80601f01602080910402602001604051908101604052809291908181526020018280546105c4906124e3565b80156106115780601f106105e657610100808354040283529160200191610611565b820191906000526020600020905b8154815290600101906020018083116105f457829003601f168201915b5050505050611928565b60405160200161062b9190612550565b60405160208183030381529060405280519060200120148015610747575061065284611928565b6040516020016106629190612550565b6040516020818303038152906040528051906020012061071f60016000848152602001908152602001600020600201805461069c906124e3565b80601f01602080910402602001604051908101604052809291908181526020018280546106c8906124e3565b80156107155780601f106106ea57610100808354040283529160200191610715565b820191906000526020600020905b8154815290600101906020018083116106f857829003601f168201915b5050505050611928565b60405160200161072f9190612550565b60405160208183030381529060405280519060200120145b801561084c575061075783611928565b6040516020016107679190612550565b604051602081830303815290604052805190602001206108246001600084815260200190815260200160002060040180546107a1906124e3565b80601f01602080910402602001604051908101604052809291908181526020018280546107cd906124e3565b801561081a5780601f106107ef5761010080835404028352916020019161081a565b820191906000526020600020905b8154815290600101906020018083116107fd57829003601f168201915b5050505050611928565b6040516020016108349190612550565b60405160208183030381529060405280519060200120145b15610c195760016000828152602001908152602001600020604051806101000160405290816000820160009054906101000a900473ffffffffffffffffffffffffffffffffffffffff1673ffffffffffffffffffffffffffffffffffffffff1673ffffffffffffffffffffffffffffffffffffffff1681526020016001820180546108d6906124e3565b80601f0160208091040260200160405190810160405280929190818152602001828054610902906124e3565b801561094f5780601f106109245761010080835404028352916020019161094f565b820191906000526020600020905b81548152906001019060200180831161093257829003601f168201915b50505050508152602001600282018054610968906124e3565b80601f0160208091040260200160405190810160405280929190818152602001828054610994906124e3565b80156109e15780601f106109b6576101008083540402835291602001916109e1565b820191906000526020600020905b8154815290600101906020018083116109c457829003601f168201915b505050505081526020016003820160009054906101000a900473ffffffffffffffffffffffffffffffffffffffff1673ffffffffffffffffffffffffffffffffffffffff1673ffffffffffffffffffffffffffffffffffffffff168152602001600482018054610a50906124e3565b80601f0160208091040260200160405190810160405280929190818152602001828054610a7c906124e3565b8015610ac95780601f10610a9e57610100808354040283529160200191610ac9565b820191906000526020600020905b815481529060010190602001808311610aac57829003601f168201915b50505050508152602001600582018054610ae2906124e3565b80601f0160208091040260200160405190810160405280929190818152602001828054610b0e906124e3565b8015610b5b5780601f10610b3057610100808354040283529160200191610b5b565b820191906000526020600020905b815481529060010190602001808311610b3e57829003601f168201915b505050505081526020016006820160009054906101000a900460ff16151515158152602001600782018054610b8f906124e3565b80601f0160208091040260200160405190810160405280929190818152602001828054610bbb906124e3565b8015610c085780601f10610bdd57610100808354040283529160200191610c08565b820191906000526020600020905b815481529060010190602001808311610beb57829003601f168201915b505050505081525050915050610c68565b8080610c2490612596565b91505061053b565b506040517f08c379a0000000000000000000000000000000000000000000000000000000008152600401610c5f9061262a565b60405180910390fd5b9392505050565b60008054906101000a900473ffffffffffffffffffffffffffffffffffffffff1673ffffffffffffffffffffffffffffffffffffffff1663e48ed191336040518263ffffffff1660e01b8152600401610cc8919061264a565b602060405180830381865afa158015610ce5573d6000803e3d6000fd5b505050506040513d601f19601f82011682018060405250810190610d099190612691565b610d48576040517f08c379a0000000000000000000000000000000000000000000000000000000008152600401610d3f9061270a565b60405180910390fd5b60008060008054906101000a900473ffffffffffffffffffffffffffffffffffffffff1673ffffffffffffffffffffffffffffffffffffffff1663645d7261336040518263ffffffff1660e01b8152600401610da4919061264a565b600060405180830381865afa158015610dc1573d6000803e3d6000fd5b505050506040513d6000823e3d601f19601f82011682018060405250810190610dea91906127af565b5050925050915060006001905060005b600254811015610ff7578873ffffffffffffffffffffffffffffffffffffffff166001600083815260200190815260200160002060030160009054906101000a900473ffffffffffffffffffffffffffffffffffffffff1673ffffffffffffffffffffffffffffffffffffffff1603610fe45787604051602001610e7e9190612550565b6040516020818303038152906040528051906020012060016000838152602001908152602001600020600201604051602001610eba9190612932565b6040516020818303038152906040528051906020012014610f10576040517f08c379a0000000000000000000000000000000000000000000000000000000008152600401610f0790612995565b60405180910390fd5b86604051602001610f219190612550565b6040516020818303038152906040528051906020012060016000838152602001908152602001600020600401604051602001610f5d9190612932565b6040516020818303038152906040528051906020012003610fe357600115156001600083815260200190815260200160002060060160009054906101000a900460ff16151514610fe2576040517f08c379a0000000000000000000000000000000000000000000000000000000008152600401610fd990612a27565b60405180910390fd5b5b5b8080610fef90612596565b915050610dfa565b5080156111ba5760006040518061010001604052808473ffffffffffffffffffffffffffffffffffffffff1681526020018581526020018981526020018a73ffffffffffffffffffffffffffffffffffffffff1681526020018881526020018781526020016000151581526020018681525090508060016000600254815260200190815260200160002060008201518160000160006101000a81548173ffffffffffffffffffffffffffffffffffffffff021916908373ffffffffffffffffffffffffffffffffffffffff16021790555060208201518160010190816110dd9190612bd4565b5060408201518160020190816110f39190612bd4565b5060608201518160030160006101000a81548173ffffffffffffffffffffffffffffffffffffffff021916908373ffffffffffffffffffffffffffffffffffffffff16021790555060808201518160040190816111509190612bd4565b5060a08201518160050190816111669190612bd4565b5060c08201518160060160006101000a81548160ff02191690831515021790555060e082015181600701908161119c9190612bd4565b50905050600260008154809291906111b390612596565b9190505550505b5050505050505050565b6000805b60025481101561139557836040516020016111e39190612550565b604051602081830303815290604052805190602001206001600083815260200190815260200160002060020160405160200161121f9190612932565b604051602081830303815290604052805190602001201480156112a257508260405160200161124e9190612550565b604051602081830303815290604052805190602001206001600083815260200190815260200160002060040160405160200161128a9190612932565b60405160208183030381529060405280519060200120145b15611382573373ffffffffffffffffffffffffffffffffffffffff166001600083815260200190815260200160002060000160009054906101000a900473ffffffffffffffffffffffffffffffffffffffff1673ffffffffffffffffffffffffffffffffffffffff161461134b576040517f08c379a000000000000000000000000000000000000000000000000000000000815260040161134290612d18565b60405180910390fd5b600180600083815260200190815260200160002060060160006101000a81548160ff02191690831515021790555060019150611395565b808061138d90612596565b9150506111c8565b50806113d6576040517f08c379a00000000000000000000000000000000000000000000000000000000081526004016113cd9061262a565b60405180910390fd5b505050565b6060600073ffffffffffffffffffffffffffffffffffffffff168273ffffffffffffffffffffffffffffffffffffffff160361144c576040517f08c379a000000000000000000000000000000000000000000000000000000000815260040161144390612d84565b60405180910390fd5b600060025467ffffffffffffffff81111561146a57611469611e20565b5b6040519080825280602002602001820160405280156114a357816020015b611490611ae0565b8152602001906001900390816114885790505b5090506000805b60025481101561191d578473ffffffffffffffffffffffffffffffffffffffff166001600083815260200190815260200160002060030160009054906101000a900473ffffffffffffffffffffffffffffffffffffffff1673ffffffffffffffffffffffffffffffffffffffff160361190a5760016000828152602001908152602001600020604051806101000160405290816000820160009054906101000a900473ffffffffffffffffffffffffffffffffffffffff1673ffffffffffffffffffffffffffffffffffffffff1673ffffffffffffffffffffffffffffffffffffffff1681526020016001820180546115a2906124e3565b80601f01602080910402602001604051908101604052809291908181526020018280546115ce906124e3565b801561161b5780601f106115f05761010080835404028352916020019161161b565b820191906000526020600020905b8154815290600101906020018083116115fe57829003601f168201915b50505050508152602001600282018054611634906124e3565b80601f0160208091040260200160405190810160405280929190818152602001828054611660906124e3565b80156116ad5780601f10611682576101008083540402835291602001916116ad565b820191906000526020600020905b81548152906001019060200180831161169057829003601f168201915b505050505081526020016003820160009054906101000a900473ffffffffffffffffffffffffffffffffffffffff1673ffffffffffffffffffffffffffffffffffffffff1673ffffffffffffffffffffffffffffffffffffffff16815260200160048201805461171c906124e3565b80601f0160208091040260200160405190810160405280929190818152602001828054611748906124e3565b80156117955780601f1061176a57610100808354040283529160200191611795565b820191906000526020600020905b81548152906001019060200180831161177857829003601f168201915b505050505081526020016005820180546117ae906124e3565b80601f01602080910402602001604051908101604052809291908181526020018280546117da906124e3565b80156118275780601f106117fc57610100808354040283529160200191611827565b820191906000526020600020905b81548152906001019060200180831161180a57829003601f168201915b505050505081526020016006820160009054906101000a900460ff1615151515815260200160078201805461185b906124e3565b80601f0160208091040260200160405190810160405280929190818152602001828054611887906124e3565b80156118d45780601f106118a9576101008083540402835291602001916118d4565b820191906000526020600020905b8154815290600101906020018083116118b757829003601f168201915b5050505050815250508383815181106118f0576118ef612da4565b5b6020026020010181905250818061190690612596565b9250505b808061191590612596565b9150506114aa565b508192505050919050565b606060008290506000815167ffffffffffffffff81111561194c5761194b611e20565b5b6040519080825280601f01601f19166020018201604052801561197e5781602001600182028036833780820191505090505b50905060005b8251811015611ad55760418382815181106119a2576119a1612da4565b5b602001015160f81c60f81b60f81c60ff16101580156119e55750605a8382815181106119d1576119d0612da4565b5b602001015160f81c60f81b60f81c60ff1611155b15611a615760208382815181106119ff576119fe612da4565b5b602001015160f81c60f81b60f81c611a179190612de0565b60f81b828281518110611a2d57611a2c612da4565b5b60200101907effffffffffffffffffffffffffffffffffffffffffffffffffffffffffffff1916908160001a905350611ac2565b828181518110611a7457611a73612da4565b5b602001015160f81c60f81b828281518110611a9257611a91612da4565b5b60200101907effffffffffffffffffffffffffffffffffffffffffffffffffffffffffffff1916908160001a9053505b8080611acd90612596565b915050611984565b508092505050919050565b604051806101000160405280600073ffffffffffffffffffffffffffffffffffffffff1681526020016060815260200160608152602001600073ffffffffffffffffffffffffffffffffffffffff1681526020016060815260200160608152602001600015158152602001606081525090565b60008115159050919050565b611b6881611b53565b82525050565b6000602082019050611b836000830184611b5f565b92915050565b600073ffffffffffffffffffffffffffffffffffffffff82169050919050565b6000819050919050565b6000611bce611bc9611bc484611b89565b611ba9565b611b89565b9050919050565b6000611be082611bb3565b9050919050565b6000611bf282611bd5565b9050919050565b611c0281611be7565b82525050565b6000602082019050611c1d6000830184611bf9565b92915050565b6000819050919050565b611c3681611c23565b82525050565b6000602082019050611c516000830184611c2d565b92915050565b6000604051905090565b600080fd5b600080fd5b611c7481611c23565b8114611c7f57600080fd5b50565b600081359050611c9181611c6b565b92915050565b600060208284031215611cad57611cac611c61565b5b6000611cbb84828501611c82565b91505092915050565b6000611ccf82611b89565b9050919050565b611cdf81611cc4565b82525050565b600081519050919050565b600082825260208201905092915050565b60005b83811015611d1f578082015181840152602081019050611d04565b60008484015250505050565b6000601f19601f8301169050919050565b6000611d4782611ce5565b611d518185611cf0565b9350611d61818560208601611d01565b611d6a81611d2b565b840191505092915050565b600061010082019050611d8b600083018b611cd6565b8181036020830152611d9d818a611d3c565b90508181036040830152611db18189611d3c565b9050611dc06060830188611cd6565b8181036080830152611dd28187611d3c565b905081810360a0830152611de68186611d3c565b9050611df560c0830185611b5f565b81810360e0830152611e078184611d3c565b90509998505050505050505050565b600080fd5b600080fd5b7f4e487b7100000000000000000000000000000000000000000000000000000000600052604160045260246000fd5b611e5882611d2b565b810181811067ffffffffffffffff82111715611e7757611e76611e20565b5b80604052505050565b6000611e8a611c57565b9050611e968282611e4f565b919050565b600067ffffffffffffffff821115611eb657611eb5611e20565b5b611ebf82611d2b565b9050602081019050919050565b82818337600083830152505050565b6000611eee611ee984611e9b565b611e80565b905082815260208101848484011115611f0a57611f09611e1b565b5b611f15848285611ecc565b509392505050565b600082601f830112611f3257611f31611e16565b5b8135611f42848260208601611edb565b91505092915050565b600080600060608486031215611f6457611f63611c61565b5b600084013567ffffffffffffffff811115611f8257611f81611c66565b5b611f8e86828701611f1d565b935050602084013567ffffffffffffffff811115611faf57611fae611c66565b5b611fbb86828701611f1d565b925050604084013567ffffffffffffffff811115611fdc57611fdb611c66565b5b611fe886828701611f1d565b9150509250925092565b611ffb81611cc4565b82525050565b600082825260208201905092915050565b600061201d82611ce5565b6120278185612001565b9350612037818560208601611d01565b61204081611d2b565b840191505092915050565b61205481611b53565b82525050565b6000610100830160008301516120736000860182611ff2565b506020830151848203602086015261208b8282612012565b915050604083015184820360408601526120a58282612012565b91505060608301516120ba6060860182611ff2565b50608083015184820360808601526120d28282612012565b91505060a083015184820360a08601526120ec8282612012565b91505060c083015161210160c086018261204b565b5060e083015184820360e08601526121198282612012565b9150508091505092915050565b60006020820190508181036000830152612140818461205a565b905092915050565b61215181611cc4565b811461215c57600080fd5b50565b60008135905061216e81612148565b92915050565b600080600080600060a086880312156121905761218f611c61565b5b600061219e8882890161215f565b955050602086013567ffffffffffffffff8111156121bf576121be611c66565b5b6121cb88828901611f1d565b945050604086013567ffffffffffffffff8111156121ec576121eb611c66565b5b6121f888828901611f1d565b935050606086013567ffffffffffffffff81111561221957612218611c66565b5b61222588828901611f1d565b925050608086013567ffffffffffffffff81111561224657612245611c66565b5b61225288828901611f1d565b9150509295509295909350565b6000806040838503121561227657612275611c61565b5b600083013567ffffffffffffffff81111561229457612293611c66565b5b6122a085828601611f1d565b925050602083013567ffffffffffffffff8111156122c1576122c0611c66565b5b6122cd85828601611f1d565b9150509250929050565b6000602082840312156122ed576122ec611c61565b5b60006122fb8482850161215f565b91505092915050565b600081519050919050565b600082825260208201905092915050565b6000819050602082019050919050565b6000610100830160008301516123496000860182611ff2565b50602083015184820360208601526123618282612012565b9150506040830151848203604086015261237b8282612012565b91505060608301516123906060860182611ff2565b50608083015184820360808601526123a88282612012565b91505060a083015184820360a08601526123c28282612012565b91505060c08301516123d760c086018261204b565b5060e083015184820360e08601526123ef8282612012565b9150508091505092915050565b60006124088383612330565b905092915050565b6000602082019050919050565b600061242882612304565b612432818561230f565b93508360208202850161244485612320565b8060005b85811015612480578484038952815161246185826123fc565b945061246c83612410565b925060208a01995050600181019050612448565b50829750879550505050505092915050565b600060208201905081810360008301526124ac818461241d565b905092915050565b7f4e487b7100000000000000000000000000000000000000000000000000000000600052602260045260246000fd5b600060028204905060018216806124fb57607f821691505b60208210810361250e5761250d6124b4565b5b50919050565b600081905092915050565b600061252a82611ce5565b6125348185612514565b9350612544818560208601611d01565b80840191505092915050565b600061255c828461251f565b915081905092915050565b7f4e487b7100000000000000000000000000000000000000000000000000000000600052601160045260246000fd5b60006125a182611c23565b91507fffffffffffffffffffffffffffffffffffffffffffffffffffffffffffffffff82036125d3576125d2612567565b5b600182019050919050565b7f4365727469666963617465206e6f7420666f756e640000000000000000000000600082015250565b6000612614601583611cf0565b915061261f826125de565b602082019050919050565b6000602082019050818103600083015261264381612607565b9050919050565b600060208201905061265f6000830184611cd6565b92915050565b61266e81611b53565b811461267957600080fd5b50565b60008151905061268b81612665565b92915050565b6000602082840312156126a7576126a6611c61565b5b60006126b58482850161267c565b91505092915050565b7f496e73746974757465206e6f7420726567697374657265640000000000000000600082015250565b60006126f4601883611cf0565b91506126ff826126be565b602082019050919050565b60006020820190508181036000830152612723816126e7565b9050919050565b600061273d61273884611e9b565b611e80565b90508281526020810184848401111561275957612758611e1b565b5b612764848285611d01565b509392505050565b600082601f83011261278157612780611e16565b5b815161279184826020860161272a565b91505092915050565b6000815190506127a981612148565b92915050565b600080600080600060a086880312156127cb576127ca611c61565b5b600086015167ffffffffffffffff8111156127e9576127e8611c66565b5b6127f58882890161276c565b955050602086015167ffffffffffffffff81111561281657612815611c66565b5b6128228882890161276c565b94505060406128338882890161279a565b935050606086015167ffffffffffffffff81111561285457612853611c66565b5b6128608882890161276c565b925050608086015167ffffffffffffffff81111561288157612880611c66565b5b61288d8882890161276c565b9150509295509295909350565b60008190508160005260206000209050919050565b600081546128bc816124e3565b6128c68186612514565b945060018216600081146128e157600181146128f657612929565b60ff1983168652811515820286019350612929565b6128ff8561289a565b60005b8381101561292157815481890152600182019150602081019050612902565b838801955050505b50505092915050565b600061293e82846128af565b915081905092915050565b7f53747564656e74206e616d6520646f6573206e6f74206d617463680000000000600082015250565b600061297f601b83611cf0565b915061298a82612949565b602082019050919050565b600060208201905081810360008301526129ae81612972565b9050919050565b7f5265636f726420616c72656164792065786973747320616e64206973206e6f7460008201527f207265766f6b6564000000000000000000000000000000000000000000000000602082015250565b6000612a11602883611cf0565b9150612a1c826129b5565b604082019050919050565b60006020820190508181036000830152612a4081612a04565b9050919050565b60006020601f8301049050919050565b600082821b905092915050565b600060088302612a947fffffffffffffffffffffffffffffffffffffffffffffffffffffffffffffffff82612a57565b612a9e8683612a57565b95508019841693508086168417925050509392505050565b6000612ad1612acc612ac784611c23565b611ba9565b611c23565b9050919050565b6000819050919050565b612aeb83612ab6565b612aff612af782612ad8565b848454612a64565b825550505050565b600090565b612b14612b07565b612b1f818484612ae2565b505050565b5b81811015612b4357612b38600082612b0c565b600181019050612b25565b5050565b601f821115612b8857612b598161289a565b612b6284612a47565b81016020851015612b71578190505b612b85612b7d85612a47565b830182612b24565b50505b505050565b600082821c905092915050565b6000612bab60001984600802612b8d565b1980831691505092915050565b6000612bc48383612b9a565b9150826002028217905092915050565b612bdd82611ce5565b67ffffffffffffffff811115612bf657612bf5611e20565b5b612c0082546124e3565b612c0b828285612b47565b600060209050601f831160018114612c3e5760008415612c2c578287015190505b612c368582612bb8565b865550612c9e565b601f198416612c4c8661289a565b60005b82811015612c7457848901518255600182019150602085019450602081019050612c4f565b86831015612c915784890151612c8d601f891682612b9a565b8355505b6001600288020188555050505b505050505050565b7f4f6e6c79207468652069737375696e6720696e737469747574652063616e207260008201527f65766f6b65207468652063657274696669636174650000000000000000000000602082015250565b6000612d02603583611cf0565b9150612d0d82612ca6565b604082019050919050565b60006020820190508181036000830152612d3181612cf5565b9050919050565b7f496e76616c69642073747564656e742061646472657373000000000000000000600082015250565b6000612d6e601783611cf0565b9150612d7982612d38565b602082019050919050565b60006020820190508181036000830152612d9d81612d61565b9050919050565b7f4e487b7100000000000000000000000000000000000000000000000000000000600052603260045260246000fd5b600060ff82169050919050565b6000612deb82612dd3565b9150612df683612dd3565b9250828201905060ff811115612e0f57612e0e612567565b5b9291505056fea2646970667358221220ad9faf8bf9ab3e755993b886a75d2e38edb4530e662f6cda9f07f97ea5f624f664736f6c63430008130033",
  "immutableReferences": {},
  "source": "// SPDX-License-Identifier: MIT\r\npragma solidity ^0.8.0;\r\n\r\nimport \"./InstituteRegistry.sol\";\r\n\r\ncontract CertificateGenerator {\r\n    struct Certificate {\r\n        address instituteAddress;\r\n        string instituteName;\r\n        string studentName;\r\n        address studentAddress;\r\n        string recordName;\r\n        string description;\r\n        bool isRevoked;\r\n        string ipfs;\r\n    }\r\n\r\n    InstituteRegistry public instituteRegistry;\r\n    bool public isReg;\r\n    mapping(uint256 => Certificate) public certificates;\r\n    uint256 public certificateCount;\r\n\r\n    constructor (address _instituteRegistryAddress) {\r\n        instituteRegistry = InstituteRegistry(_instituteRegistryAddress);\r\n    }\r\n\r\n    function generateCertificate(address _studentAddress, string memory _studentName, string memory _recordName, string memory _description, string memory _ipfs) public {\r\n        require(instituteRegistry.isRegisteredInstitute(msg.sender), \"Institute not registered\");\r\n        (string memory instituteName,, address instituteAddress,,) = instituteRegistry.getInstitute(msg.sender);\r\n        bool canGenerate = true;\r\n        for (uint i = 0; i < certificateCount; i++) {\r\n            if (certificates[i].studentAddress == _studentAddress) {\r\n                require(keccak256(abi.encodePacked(certificates[i].studentName)) == keccak256(abi.encodePacked(_studentName)), \"Student name does not match\");\r\n                if (keccak256(abi.encodePacked(certificates[i].recordName)) == keccak256(abi.encodePacked(_recordName))) {\r\n                    require(certificates[i].isRevoked == true, \"Record already exists and is not revoked\");\r\n                }\r\n            }\r\n        }\r\n        if (canGenerate) {\r\n            Certificate memory newCertificate = Certificate({\r\n                instituteAddress: instituteAddress,\r\n                instituteName: instituteName,\r\n                studentName: _studentName,\r\n                studentAddress: _studentAddress,\r\n                recordName: _recordName,\r\n                description: _description,\r\n                isRevoked: false,\r\n                ipfs: _ipfs\r\n            });\r\n            certificates[certificateCount] = newCertificate;\r\n            certificateCount++;\r\n        }\r\n    }\r\n\r\n    function revokeCertificate(string memory studentName, string memory recordName) public {\r\n        bool certificateFound = false;\r\n        for (uint i = 0; i < certificateCount; i++) {\r\n            if (keccak256(abi.encodePacked(certificates[i].studentName)) == keccak256(abi.encodePacked(studentName)) && keccak256(abi.encodePacked(certificates[i].recordName)) == keccak256(abi.encodePacked(recordName))) {\r\n                require(\r\n                    certificates[i].instituteAddress == msg.sender,\r\n                    \"Only the issuing institute can revoke the certificate\"\r\n                );\r\n                certificates[i].isRevoked = true;\r\n                certificateFound = true;\r\n                break;\r\n            }\r\n        }\r\n        require(certificateFound, \"Certificate not found\");\r\n    }\r\n\r\n\r\n    function getCertificatesByStudent(address _studentAddress) public view returns (Certificate[] memory) {\r\n        require(_studentAddress != address(0), \"Invalid student address\");\r\n        Certificate[] memory result = new Certificate[](certificateCount);\r\n        uint counter = 0;\r\n        for (uint i = 0; i < certificateCount; i++) {\r\n            if (certificates[i].studentAddress == _studentAddress) {\r\n                result[counter] = certificates[i];\r\n                counter++;\r\n            }\r\n        }\r\n        return result;\r\n    }\r\n\r\n    function getCertificate(string memory instituteName, string memory studentName, string memory recordName) public view returns (Certificate memory) {\r\n        for (uint i = 0; i < certificateCount; i++) {\r\n            if (\r\n                keccak256(abi.encodePacked(toLower(certificates[i].instituteName))) == keccak256(abi.encodePacked(toLower(instituteName))) &&\r\n                keccak256(abi.encodePacked(toLower(certificates[i].studentName))) == keccak256(abi.encodePacked(toLower(studentName))) &&\r\n                keccak256(abi.encodePacked(toLower(certificates[i].recordName))) == keccak256(abi.encodePacked(toLower(recordName)))\r\n            ) {\r\n                return certificates[i];\r\n            }\r\n        }\r\n        revert(\"Certificate not found\");\r\n    }\r\n\r\n    function toLower(string memory str) internal pure returns (string memory) {\r\n        bytes memory bStr = bytes(str);\r\n        bytes memory bLower = new bytes(bStr.length);\r\n        for (uint i = 0; i < bStr.length; i++) {\r\n            if ((uint8(bStr[i]) >= 65) && (uint8(bStr[i]) <= 90)) {\r\n                bLower[i] = bytes1(uint8(bStr[i]) + 32);\r\n            } else {\r\n                bLower[i] = bStr[i];\r\n            }\r\n        }\r\n        return string(bLower);\r\n    }\r\n}\r\n\r\n",
  "sourcePath": "C:\\Users\\Asus\\Downloads\\Blockcert\\Blockcert\\contracts\\CertificateGenerator.sol",
  "compiler": {
    "name": "solc",
    "version": "0.8.19+commit.7dd6d404.Emscripten.clang"
  },
  "schemaVersion": "3.4.11",
  "updatedAt": "2023-05-19T18:03:03.720Z",
  "networkType": "ethereum",
  "devdoc": {
    "kind": "dev",
    "methods": {},
    "version": 1
  },
  "userdoc": {
    "kind": "user",
    "methods": {},
    "version": 1
  }
}