{
  "contractName": "InstituteRegistry",
  "abi": [
    {
      "inputs": [
        {
          "internalType": "uint256",
          "name": "",
          "type": "uint256"
        }
      ],
      "name": "instituteAddresses",
      "outputs": [
        {
          "internalType": "address",
          "name": "",
          "type": "address"
        }
      ],
      "stateMutability": "view",
      "type": "function",
      "constant": true
    },
    {
      "inputs": [
        {
          "internalType": "address",
          "name": "",
          "type": "address"
        }
      ],
      "name": "institutes",
      "outputs": [
        {
          "internalType": "string",
          "name": "name",
          "type": "string"
        },
        {
          "internalType": "string",
          "name": "email",
          "type": "string"
        },
        {
          "internalType": "address",
          "name": "ins_address",
          "type": "address"
        },
        {
          "internalType": "string",
          "name": "link",
          "type": "string"
        },
        {
          "internalType": "string",
          "name": "acronym",
          "type": "string"
        }
      ],
      "stateMutability": "view",
      "type": "function",
      "constant": true
    },
    {
      "inputs": [
        {
          "internalType": "string",
          "name": "_name",
          "type": "string"
        },
        {
          "internalType": "string",
          "name": "_email",
          "type": "string"
        },
        {
          "internalType": "address",
          "name": "_address",
          "type": "address"
        },
        {
          "internalType": "string",
          "name": "_link",
          "type": "string"
        },
        {
          "internalType": "string",
          "name": "_acronym",
          "type": "string"
        }
      ],
      "name": "registerInstitute",
      "outputs": [],
      "stateMutability": "nonpayable",
      "type": "function"
    },
    {
      "inputs": [
        {
          "internalType": "address",
          "name": "_address",
          "type": "address"
        }
      ],
      "name": "getInstitute",
      "outputs": [
        {
          "internalType": "string",
          "name": "",
          "type": "string"
        },
        {
          "internalType": "string",
          "name": "",
          "type": "string"
        },
        {
          "internalType": "address",
          "name": "",
          "type": "address"
        },
        {
          "internalType": "string",
          "name": "",
          "type": "string"
        },
        {
          "internalType": "string",
          "name": "",
          "type": "string"
        }
      ],
      "stateMutability": "view",
      "type": "function",
      "constant": true
    },
    {
      "inputs": [],
      "name": "getInstituteCount",
      "outputs": [
        {
          "internalType": "uint256",
          "name": "",
          "type": "uint256"
        }
      ],
      "stateMutability": "view",
      "type": "function",
      "constant": true
    },
    {
      "inputs": [
        {
          "internalType": "address",
          "name": "_address",
          "type": "address"
        }
      ],
      "name": "isRegisteredInstitute",
      "outputs": [
        {
          "internalType": "bool",
          "name": "",
          "type": "bool"
        }
      ],
      "stateMutability": "view",
      "type": "function",
      "constant": true
    }
  ],
  "bytecode": "0x608060405234801561001057600080fd5b506112e7806100206000396000f3fe608060405234801561001057600080fd5b50600436106100625760003560e01c80631b8c3d5b1461006757806360e7bb0d14610097578063645d7261146100b55780637e0e46b7146100e9578063e48ed1911461011d578063f0b84d371461014d575b600080fd5b610081600480360381019061007c9190610a60565b610169565b60405161008e9190610ace565b60405180910390f35b61009f6101a8565b6040516100ac9190610af8565b60405180910390f35b6100cf60048036038101906100ca9190610b3f565b6101b5565b6040516100e0959493929190610bfc565b60405180910390f35b61010360048036038101906100fe9190610b3f565b6104d5565b604051610114959493929190610bfc565b60405180910390f35b61013760048036038101906101329190610b3f565b61074b565b6040516101449190610c86565b60405180910390f35b61016760048036038101906101629190610dd6565b6107f9565b005b6001818154811061017957600080fd5b906000526020600020016000915054906101000a900473ffffffffffffffffffffffffffffffffffffffff1681565b6000600180549050905090565b606080600060608060008060008873ffffffffffffffffffffffffffffffffffffffff1673ffffffffffffffffffffffffffffffffffffffff1681526020019081526020016000206040518060a001604052908160008201805461021890610ef0565b80601f016020809104026020016040519081016040528092919081815260200182805461024490610ef0565b80156102915780601f1061026657610100808354040283529160200191610291565b820191906000526020600020905b81548152906001019060200180831161027457829003601f168201915b505050505081526020016001820180546102aa90610ef0565b80601f01602080910402602001604051908101604052809291908181526020018280546102d690610ef0565b80156103235780601f106102f857610100808354040283529160200191610323565b820191906000526020600020905b81548152906001019060200180831161030657829003601f168201915b505050505081526020016002820160009054906101000a900473ffffffffffffffffffffffffffffffffffffffff1673ffffffffffffffffffffffffffffffffffffffff1673ffffffffffffffffffffffffffffffffffffffff16815260200160038201805461039290610ef0565b80601f01602080910402602001604051908101604052809291908181526020018280546103be90610ef0565b801561040b5780601f106103e05761010080835404028352916020019161040b565b820191906000526020600020905b8154815290600101906020018083116103ee57829003601f168201915b5050505050815260200160048201805461042490610ef0565b80601f016020809104026020016040519081016040528092919081815260200182805461045090610ef0565b801561049d5780601f106104725761010080835404028352916020019161049d565b820191906000526020600020905b81548152906001019060200180831161048057829003601f168201915b505050505081525050905080600001518160200151826040015183606001518460800151955095509550955095505091939590929450565b60006020528060005260406000206000915090508060000180546104f890610ef0565b80601f016020809104026020016040519081016040528092919081815260200182805461052490610ef0565b80156105715780601f1061054657610100808354040283529160200191610571565b820191906000526020600020905b81548152906001019060200180831161055457829003601f168201915b50505050509080600101805461058690610ef0565b80601f01602080910402602001604051908101604052809291908181526020018280546105b290610ef0565b80156105ff5780601f106105d4576101008083540402835291602001916105ff565b820191906000526020600020905b8154815290600101906020018083116105e257829003601f168201915b5050505050908060020160009054906101000a900473ffffffffffffffffffffffffffffffffffffffff169080600301805461063a90610ef0565b80601f016020809104026020016040519081016040528092919081815260200182805461066690610ef0565b80156106b35780601f10610688576101008083540402835291602001916106b3565b820191906000526020600020905b81548152906001019060200180831161069657829003601f168201915b5050505050908060040180546106c890610ef0565b80601f01602080910402602001604051908101604052809291908181526020018280546106f490610ef0565b80156107415780601f1061071657610100808354040283529160200191610741565b820191906000526020600020905b81548152906001019060200180831161072457829003601f168201915b5050505050905085565b600080600090505b6001805490508110156107ee578273ffffffffffffffffffffffffffffffffffffffff166001828154811061078b5761078a610f21565b5b9060005260206000200160009054906101000a900473ffffffffffffffffffffffffffffffffffffffff1673ffffffffffffffffffffffffffffffffffffffff16036107db5760019150506107f4565b80806107e690610f7f565b915050610753565b50600090505b919050565b60008060003373ffffffffffffffffffffffffffffffffffffffff1673ffffffffffffffffffffffffffffffffffffffff168152602001908152602001600020600001805461084790610ef0565b905014610889576040517f08c379a000000000000000000000000000000000000000000000000000000000815260040161088090611013565b60405180910390fd5b60006040518060a001604052808781526020018681526020018573ffffffffffffffffffffffffffffffffffffffff168152602001848152602001838152509050806000803373ffffffffffffffffffffffffffffffffffffffff1673ffffffffffffffffffffffffffffffffffffffff168152602001908152602001600020600082015181600001908161091e91906111df565b50602082015181600101908161093491906111df565b5060408201518160020160006101000a81548173ffffffffffffffffffffffffffffffffffffffff021916908373ffffffffffffffffffffffffffffffffffffffff160217905550606082015181600301908161099191906111df565b5060808201518160040190816109a791906111df565b509050506001339080600181540180825580915050600190039060005260206000200160009091909190916101000a81548173ffffffffffffffffffffffffffffffffffffffff021916908373ffffffffffffffffffffffffffffffffffffffff160217905550505050505050565b6000604051905090565b600080fd5b600080fd5b6000819050919050565b610a3d81610a2a565b8114610a4857600080fd5b50565b600081359050610a5a81610a34565b92915050565b600060208284031215610a7657610a75610a20565b5b6000610a8484828501610a4b565b91505092915050565b600073ffffffffffffffffffffffffffffffffffffffff82169050919050565b6000610ab882610a8d565b9050919050565b610ac881610aad565b82525050565b6000602082019050610ae36000830184610abf565b92915050565b610af281610a2a565b82525050565b6000602082019050610b0d6000830184610ae9565b92915050565b610b1c81610aad565b8114610b2757600080fd5b50565b600081359050610b3981610b13565b92915050565b600060208284031215610b5557610b54610a20565b5b6000610b6384828501610b2a565b91505092915050565b600081519050919050565b600082825260208201905092915050565b60005b83811015610ba6578082015181840152602081019050610b8b565b60008484015250505050565b6000601f19601f8301169050919050565b6000610bce82610b6c565b610bd88185610b77565b9350610be8818560208601610b88565b610bf181610bb2565b840191505092915050565b600060a0820190508181036000830152610c168188610bc3565b90508181036020830152610c2a8187610bc3565b9050610c396040830186610abf565b8181036060830152610c4b8185610bc3565b90508181036080830152610c5f8184610bc3565b90509695505050505050565b60008115159050919050565b610c8081610c6b565b82525050565b6000602082019050610c9b6000830184610c77565b92915050565b600080fd5b600080fd5b7f4e487b7100000000000000000000000000000000000000000000000000000000600052604160045260246000fd5b610ce382610bb2565b810181811067ffffffffffffffff82111715610d0257610d01610cab565b5b80604052505050565b6000610d15610a16565b9050610d218282610cda565b919050565b600067ffffffffffffffff821115610d4157610d40610cab565b5b610d4a82610bb2565b9050602081019050919050565b82818337600083830152505050565b6000610d79610d7484610d26565b610d0b565b905082815260208101848484011115610d9557610d94610ca6565b5b610da0848285610d57565b509392505050565b600082601f830112610dbd57610dbc610ca1565b5b8135610dcd848260208601610d66565b91505092915050565b600080600080600060a08688031215610df257610df1610a20565b5b600086013567ffffffffffffffff811115610e1057610e0f610a25565b5b610e1c88828901610da8565b955050602086013567ffffffffffffffff811115610e3d57610e3c610a25565b5b610e4988828901610da8565b9450506040610e5a88828901610b2a565b935050606086013567ffffffffffffffff811115610e7b57610e7a610a25565b5b610e8788828901610da8565b925050608086013567ffffffffffffffff811115610ea857610ea7610a25565b5b610eb488828901610da8565b9150509295509295909350565b7f4e487b7100000000000000000000000000000000000000000000000000000000600052602260045260246000fd5b60006002820490506001821680610f0857607f821691505b602082108103610f1b57610f1a610ec1565b5b50919050565b7f4e487b7100000000000000000000000000000000000000000000000000000000600052603260045260246000fd5b7f4e487b7100000000000000000000000000000000000000000000000000000000600052601160045260246000fd5b6000610f8a82610a2a565b91507fffffffffffffffffffffffffffffffffffffffffffffffffffffffffffffffff8203610fbc57610fbb610f50565b5b600182019050919050565b7f496e7374697475746520616c7265616479207265676973746572656400000000600082015250565b6000610ffd601c83610b77565b915061100882610fc7565b602082019050919050565b6000602082019050818103600083015261102c81610ff0565b9050919050565b60008190508160005260206000209050919050565b60006020601f8301049050919050565b600082821b905092915050565b6000600883026110957fffffffffffffffffffffffffffffffffffffffffffffffffffffffffffffffff82611058565b61109f8683611058565b95508019841693508086168417925050509392505050565b6000819050919050565b60006110dc6110d76110d284610a2a565b6110b7565b610a2a565b9050919050565b6000819050919050565b6110f6836110c1565b61110a611102826110e3565b848454611065565b825550505050565b600090565b61111f611112565b61112a8184846110ed565b505050565b5b8181101561114e57611143600082611117565b600181019050611130565b5050565b601f8211156111935761116481611033565b61116d84611048565b8101602085101561117c578190505b61119061118885611048565b83018261112f565b50505b505050565b600082821c905092915050565b60006111b660001984600802611198565b1980831691505092915050565b60006111cf83836111a5565b9150826002028217905092915050565b6111e882610b6c565b67ffffffffffffffff81111561120157611200610cab565b5b61120b8254610ef0565b611216828285611152565b600060209050601f8311600181146112495760008415611237578287015190505b61124185826111c3565b8655506112a9565b601f19841661125786611033565b60005b8281101561127f5784890151825560018201915060208501945060208101905061125a565b8683101561129c5784890151611298601f8916826111a5565b8355505b6001600288020188555050505b50505050505056fea264697066735822122078c6bf6ac7ea2f131d8d75535389a358e3c02fb3a1523f57dea6857d1cffccb864736f6c63430008130033",
  "immutableReferences": {},
  "source": "//SPDX-License-Identifier:MIT\r\npragma solidity ^0.8.0;\r\n\r\ncontract InstituteRegistry {\r\n    struct Institute {\r\n        string name;\r\n        string email;\r\n        address ins_address;\r\n        string link;\r\n        string acronym;\r\n    }\r\n\r\n    mapping(address => Institute) public institutes;\r\n    address[] public instituteAddresses;\r\n\r\n    function registerInstitute(\r\n        string memory _name,\r\n        string memory _email,\r\n        address  _address,\r\n        string memory _link,\r\n        string memory _acronym\r\n    ) public {\r\n        require(\r\n            bytes(institutes[msg.sender].name).length == 0,\r\n            \"Institute already registered\"\r\n        );\r\n\r\n        Institute memory newInstitute = Institute({\r\n            name: _name,\r\n            email: _email,\r\n            ins_address: _address,\r\n            link: _link,\r\n            acronym: _acronym\r\n        });\r\n\r\n        institutes[msg.sender] = newInstitute;\r\n        instituteAddresses.push(msg.sender);\r\n    }\r\n\r\n    function getInstitute(address _address) public view returns (string memory,string memory,address,string memory,string memory) {\r\n        Institute memory institute = institutes[_address];\r\n            return (\r\n                institute.name,\r\n                institute.email,\r\n                institute.ins_address,\r\n                institute.link,\r\n                institute.acronym\r\n            );\r\n        }\r\n\r\n    function getInstituteCount() public view returns (uint256) {\r\n        return instituteAddresses.length;\r\n    }\r\n\r\n     function isRegisteredInstitute(address _address) public view returns (bool) {\r\n        for (uint256 i = 0; i < instituteAddresses.length; i++) {\r\n            if (instituteAddresses[i] == _address) {\r\n                return true;\r\n            }\r\n        }\r\n        return false;\r\n    }\r\n}\r\n\r\n\r\n\r\n",
  "sourcePath": "C:\\Users\\Asus\\Downloads\\Blockcert\\Blockcert\\contracts\\InstituteRegistry.sol",
  "compiler": {
    "name": "solc",
    "version": "0.8.19+commit.7dd6d404.Emscripten.clang"
  },
  "schemaVersion": "3.4.11",
  "updatedAt": "2023-05-19T18:03:03.738Z",
  "networkType": "ethereum",
  "devdoc": {
    "kind": "dev",
    "methods": {},
    "version": 1
  },
  "userdoc": {
    "kind": "user",
    "methods": {},
    "version": 1
  }
}